:020000040800F2
:1000000000400120D1320008ED310008EF31000836
:10001000F1310008F3310008F5310008000000005C
:10002000000000000000000000000000F7310008A0
:10003000F931000800000000FB310008FD31000824
:100040001933000819330008193300081933000860
:100050001933000819330008193300081933000850
:100060001933000819330008193300080932000851
:100070001933000819320008193300081933000831
:100080001933000819330008293200081933000811
:100090001933000819330008193300081933000810
:1000A00019330008193300083932000819330008E1
:1000B0004932000859320008193300081933000882
:1000C00019330008193300081933000819330008E0
:1000D0001933000819330008193300086932000881
:1000E00019330008193300081933000819330008C0
:1000F00079320008000000001933000819330008A5
:10010000193300081933000819330008193300089F
:1001100019330008193300081933000800000000E3
:10012000193300080000000000000000000000007B
:0C01300000000000000000005FF808F173
:10013C0010B5054C237833B9044B13B10448AFF315
:10014C0000800123237010BD04000020000000007B
:10015C006433000808B5034B1BB103490348AFF3E4
:10016C00008008BD00000000080000206433000877
:10017C0010B50446074B1868074BA3FB00308009E9
:10018C0000F0B6FB002221464FF0FF3000F070FB70
:10019C00002010BD00000020D34D621008B50320D4
:1001AC0000F054FB0020FFF7E3FF02F0BBFE002041
:1001BC0008BD0000024A136801331360704700BF8A
:1001CC0048000020014B1868704700BF4800002011
:1001DC0010B582B00190FFF7F5FF0446FFF7F2FF70
:1001EC00001B019B9842F9D302B010BD002800F00F
:1001FC00BA8070B582B00446C36C002B5CD0E36C43
:10020C0013F0100F40F0B180E36C23F4885323F00B
:10021C00020343F00203E364554A536823F440336A
:10022C0061680B435360E36862691343E16B4FF4FD
:10023C00007292FAA2F2B2FA82F201FA02F21343BB
:10024C00226A1A43606A022393FAA3F3B3FA83F384
:10025C0000FA03F31343626B102A02D0A16B0A431A
:10026C00134325682A6812F0400213D1A1690B438D
:10027C00A168E66931432669B6F5807F2FD0012E3F
:10028C002AD00A43E16A01292CD068683949014017
:10029C000A436A6021688868374A02401A438A60B8
:1002AC002269B2F5807F34D0012A32D021680A6BE2
:1002BC0022F0F8720A633BE0036580F848302F4B5C
:1002CC001A6A42F001021A621B6A03F001030193DD
:1002DC00019B02F077FE92E74FF48072D1E74FF466
:1002EC008072CEE760B9216B01394FF4604090FA0F
:1002FC00A0F0B0FA80F0814041F400610A43C4E7F9
:10030C00E16C41F02001E164216D41F001012165B6
:10031C00BBE725682A6B22F0F872A16A01394FF00D
:10032C00F87090FAA0F0B0FA80F081400A432A638A
:10033C0022689168124A0A409A420BD0E36C23F06F
:10034C00120343F01003E364236D43F001032365B0
:10035C0001200BE000202065E36C23F0030343F045
:10036C000103E36402E001207047012002B070BD7C
:10037C0000270140FF16FCFC89F1FFC00038024049
:10038C00FEFF80BF08B5436ADA6C12F0500F03D041
:10039C005B6C1B6B984708BDDA6C42F40072DA6434
:1003AC001A68916811F0405F19D1596AB9B9116B8B
:1003BC0011F0F87F03D0916811F4806F0FD1516860
:1003CC0021F020015160DA6C22F48072DA64DA6C6C
:1003DC0012F4805F03D1DA6C42F00102DA64184641
:1003EC0002F09AFBD7E7704708B5406AFFF7FBFFAE
:1003FC0008BD7047704708B5406AC36C43F04003B2
:10040C00C364036D43F004030365FFF7F3FF08BDFA
:10041C0038B5044603685A6812F0200F30D01A68B9
:10042C0012F0020F2CD0C26C12F0100F03D1C26C60
:10043C0042F40072C2649A6812F0405F19D1626A89
:10044C00BAB91A6B12F0F87F03D09A6812F4806F65
:10045C000FD15A6822F020025A60E36C23F48073A7
:10046C00E364E36C13F4805F03D1E36C43F00103AA
:10047C00E364204602F050FB23686FF012021A600E
:10048C0023685A6812F0800F38D01A6812F0040FE3
:10049C0034D0E26C12F0100F03D1E26C42F4005233
:1004AC00E2649A6812F4401F21D15A6C12F4401F76
:1004BC0003D09A6812F4806F19D15A6812F4806FC5
:1004CC0015D19A6812F0405F11D1626A7AB95A68F4
:1004DC0022F080025A60E36C23F48053E364E36CF3
:1004EC0013F4807F03D1E36C43F00103E3642046F3
:1004FC0000F0AAF923686FF00C021A6023685A689E
:10050C0012F0400F03D01B6813F0010F09D12368C0
:10051C005A6812F0806F03D01A6812F0200F0CD1B9
:10052C0038BDE36C43F48033E3642046FFF761FF8E
:10053C0023686FF001021A60E9E7226D42F00202B3
:10054C0022656FF020051D602046FFF753FF2368DE
:10055C001D60E5E730B482B00023019390F8483079
:10056C00012B00F0C780012380F848304B68062B24
:10057C0028D805682A6C03EB8303053B1F249C4099
:10058C0022EA04020C6804FA03F313432B640B688D
:10059C00092B59D805686A6903EB430307249C406F
:1005AC0022EA04028C6804FA03F313436B610B68B0
:1005BC00103B012B79D9002380F84830184602B043
:1005CC0030BC70470C2B0ED80568EA6B03EB830329
:1005DC00233B1F249C4022EA04020C6804FA03F318
:1005EC001343EB63D3E7122B0ED80568AA6B03EB0E
:1005FC008303413B1F249C4022EA04020C6804FA4A
:10060C0003F31343AB63C2E7182B0ED805686A6B70
:10061C0003EB83035F3B1F249C4022EA04020C681B
:10062C0004FA03F313436B63B1E705682A6B03EB1E
:10063C0083037D3B1F249C4022EA04020C6804FACD
:10064C0003F313432B63A2E7132B0ED805682A6917
:10065C0003EB43031E3B07249C4022EA04028C68F4
:10066C0004FA03F313432B61A1E71D2B0ED8056885
:10067C00EA6803EB43033C3B07249C4022EA040258
:10068C008C6804FA03F31343EB6090E70568EA6D9A
:10069C0003EB43035A3B07249C4022EA04028C6878
:1006AC0004FA03F31343EB6581E7134B5B6813F414
:1006BC00000F80D1104A536843F4000353600B6859
:1006CC00102B7FF478AF0D4B1B6802F1467202F5CC
:1006DC002D3202F28332A2FB03239B0C03EB830328
:1006EC005A00019202E0019B013B0193019B002BFC
:1006FC00F9D160E7022062E70027014000000020EA
:10070C0030B583B00023019303681A6812F0400FD0
:10071C0030D19A6842F001029A60184B1B68184A53
:10072C00A2FB03239B0C03EB4303019302E0019B0D
:10073C00013B0193019B002BF9D10446FFF742FDCD
:10074C00054623681B6813F0400F11D1FFF73AFDE3
:10075C00401B0228F5D9E36C43F01003E364236DCE
:10076C0043F001032365002384F84830012002E0A4
:10077C00002000E0002003B030BD00BF00000020CE
:10078C0083DE1B43F8B590F84840012C53D0164635
:10079C000F460446012380F84830FFF7B1FF0546A9
:1007AC00002849D1E36C23F4E06323F0010343F404
:1007BC008073E36423685B6813F4806F05D0E36C8B
:1007CC0023F4405343F48053E364E36C13F4805FED
:1007DC002ED0236D23F006032365002384F84830C4
:1007EC00636C164A9A62636C154ADA62636C154A3A
:1007FC001A6323686FF022021A602268536843F070
:10080C00806353602268936843F48073936021681B
:10081C0033463A465831606C00F0FCF823689A680D
:10082C0012F0405F08D19A6842F080429A6003E06F
:10083C0000232365D1E702252846F8BD9103000863
:10084C00F50300080304000870470000074AD3684A
:10085C0023F4E0631B041B0C000200F4E06018435B
:10086C0040F0BF6040F40030D060704700ED00E015
:10087C0030B4174BDB68C3F30223C3F10704042C19
:10088C0028BF04241D1D062D18D9033B4FF0FF353E
:10089C0005FA04F421EA0401994005FA03F322EA6B
:1008AC000303194300280BDB0901C9B200F16040B6
:1008BC0000F5614080F8001330BC70470023E5E779
:1008CC0000F00F000901C9B2024B1954F4E700BF44
:1008DC0000ED00E014ED00E000F01F0240090123E0
:1008EC009340024A42F82030704700BF00E100E01C
:1008FC000138B0F1807F0AD2064B5860064AF021CD
:10090C0082F823100020986007221A60704701209B
:10091C00704700BF10E000E000ED00E0042805D0B7
:10092C00054A136823F0040313607047024A1368E6
:10093C0043F004031360704710E000E0704708B503
:10094C00FFF7FCFF08BD70B4066CC56B0124B44006
:10095C006C60046863604368102B05D00368996071
:10096C000368DA6070BC704703689A600368D960EA
:10097C00F8E7000000283FD010B4034601681F4A76
:10098C0091422ED81E4A0A441E49A1FB021212099A
:10099C00920002641C4AC263022283F82120186868
:1009AC00016821F47F5121F030015A689C68224380
:1009BC00DC6822431C6922435C6922439C69224304
:1009CC00DC6922430A43026000209862D8621863F3
:1009DC0058639863012283F8212083F8200010BC0F
:1009EC0070470A4A0A440749A1FB021212099200F5
:1009FC000264074AC263CFE70120704707640240D4
:100A0C00F89FFDBFCDCCCCCC00600240F89BFDBF65
:100A1C000064024038B590F82040012C33D00124FA
:100A2C0080F8204090F82140E4B2012C04D000233F
:100A3C0080F82030022038BD0446022084F82100C2
:100A4C000020A0632568286820F00100286020465B
:100A5C00FFF779FFE36A5BB12268136843F00E037A
:100A6C0013602268136843F0010313600020E2E76F
:100A7C002268136823F0040313602268136843F0A0
:100A8C000A031360EDE70220D5E738B5C36B1A688B
:100A9C0004682568016C04238B40134213D015F0B5
:100AAC00040F10D0236813F0200F03D1236823F018
:100ABC0004032360016CC26B04238B405360C36A34
:100ACC0003B1984738BD02238B4013421AD015F05E
:100ADC00020F17D0236813F0200F06D1236823F0E0
:100AEC000A032360012380F82130016CC26B0223BE
:100AFC008B405360002380F82030836A002BE1D0B8
:100B0C009847DFE7082303FA01F11142DAD015F018
:100B1C00080FD7D0236823F00E032360026CC16B3F
:100B2C00012303FA02F24A60836380F82130002328
:100B3C0080F82030036B002BC4D09847C2E700002C
:100B4C00F0B482B0002336E0062400E00024B44068
:100B5C003C430235624E46F82540624C2568D4432E
:100B6C0004EA05064F6817F4803F01D042EA0506F7
:100B7C005C4D2E606D6804EA05064F6817F4003F63
:100B8C0001D042EA0506574D6E60AD6804EA0506D1
:100B9C004F6817F4801F01D042EA0506514DAE6034
:100BAC00ED682C404E6816F4001F01D042EA050493
:100BBC004C4AD46001330A6832FA03F400F08C809A
:100BCC0001249C402240F5D04D68022D01D0122DFD
:100BDC0010D1DE08083650F826C003F00705AF0028
:100BEC000F25BD402CEA050C0D69BD4045EA0C05EE
:100BFC0040F8265006685F000325BD40ED4305EA2A
:100C0C00060C4E6806F00306BE4046EA0C0606606B
:100C1C004E6806F1FF3CBCF1010F03D9112E01D037
:100C2C00122E10D1866805EA060CCE68BE4046EA44
:100C3C000C068660466826EA04044E68C6F3001665
:100C4C009E4026434660C46825408C68BC402C43BB
:100C5C00C4604C6814F0805FACD0234C256A45F01E
:100C6C0001052562246A04F001040194019C9D088D
:100C7C00AE1C1B4C54F8267003F00304A6000F2482
:100C8C00B44027EA0407194CA0423FF45FAF04F5C7
:100C9C008064A04216D004F58064A04214D004F500
:100CAC008064A04212D004F58064A04210D004F5F8
:100CBC008064A0420ED004F58064A0423FF444AF9F
:100CCC00072444E7012442E7022440E703243EE7DB
:100CDC0004243CE705243AE702B0F0BC704700BF9F
:100CEC0000000140000401400038024000000240B6
:100CFC0012B9090481617047816170474369594099
:100D0C004161704782B0214B9B6813F0F00F2CD1DE
:100D1C001E4B5B6A13F0805F08D01D4B1B6803F4FD
:100D2C00C053B3F5C05F14D000211FE0174A536ABB
:100D3C0043F080535362536A03F080530193019B39
:100D4C00134B1B6803F4C053516A21F0805151625C
:100D5C00E7E7B0F5404F01D0002107E00D4A1368DA
:100D6C0043F004031360012100E00021094A1368D9
:100D7C0023F001030B431360136803F001038B4250
:100D8C0002D0012002B070470020FBE7003802407F
:100D9C0000700040003C024070B582B0044603680D
:100DAC0013F0010F37D0754B9B6803F00C03082B25
:100DBC001AD0724B9B6803F00C030C2B0FD063689A
:100DCC00012B66D0002B40F088806C4B1A6822F403
:100DDC0080321A601A6822F480221A605EE0674B37
:100DEC009B6813F4803FEAD04FF4003393FAA3F3DB
:100DFC00624B19684FF4003393FAA3F3B3FA83F3FD
:100E0C0003F01F03012202FA03F30B4203D06368C1
:100E1C00002B00F07883236813F0020F00F0BF80E2
:100E2C00564B9B6803F00C03042B00F09080534B43
:100E3C009B6803F00C030C2B00F08380E368002B01
:100E4C0000F04B81012292FAA2F3B3FA83F303F17F
:100E5C00845303F58E139B001A60FFF7B3F9054614
:100E6C00022393FAA3F3454B1968022393FAA3F3D5
:100E7C00B3FA83F303F01F03012202FA03F30B42CC
:100E8C0040F01B81FFF79EF9401B0228E8D9032094
:100E9C0040E33A4A136843F480331360636893B3B6
:100EAC00FFF790F905464FF4003393FAA3F3334B55
:100EBC0019684FF4003393FAA3F3B3FA83F303F0F6
:100ECC001F03012202FA03F30B42A4D1FFF77AF9B4
:100EDC00401B6428E7D903201CE3052B09D0274BC2
:100EEC001A6822F480321A601A6822F480221A607E
:100EFC00D4E7224B1A6842F480221A601A6842F432
:100F0C0080321A60CAE7FFF75DF905464FF40033EB
:100F1C0093FAA3F3194B19684FF4003393FAA3F324
:100F2C00B3FA83F303F01F03012202FA03F30B421B
:100F3C003FF471AFFFF746F9401B6428E6D9032054
:100F4C00E8E20E4B9B6813F4803F7FF477AF0223EB
:100F5C0093FAA3F3094B1968022393FAA3F3B3FA98
:100F6C0083F303F01F03012202FA03F30B4207D0B1
:100F7C00E368934204D00120CCE200BF0038024069
:100F8C00C148436823F4F85321694FF4F85292FA9C
:100F9C00A2F2B2FA82F201FA02F21343436023681E
:100FAC0013F0100F5CD0B84B9B6813F00C0F40F093
:100FBC00D8804FF4007393FAA3F3B34B19684FF432
:100FCC00007393FAA3F3B3FA83F303F01F03012224
:100FDC0002FA03F30B4203D0A369002B00F09582B5
:100FEC00206AA94B5B6803F46043984240F29D80F1
:100FFC00FFF788FE002840F08A82A3494B6823F44F
:10100C006043226A13434B604B6823F07F43E069D3
:10101C004FF07F4292FAA2F2B2FA82F200FA02F296
:10102C0013434B60236A4FF4604292FAA2F2B2FA75
:10103C0082F2D3405A1C4FF400439340924A926878
:10104C0002F0F002F02191FAA1F1B1FA81F1CA405B
:10105C008E498A5CD3408E4A13600020FFF788F8D3
:10106C00236813F0080F00F017816369002B00F060
:10107C00E680012191FAA1F2B2FA82F2854B134477
:10108C009B001960FFF79EF80546022393FAA3F222
:10109C007D4A516B93FAA3F3B3FA83F303F01F0366
:1010AC00012202FA03F30B4240F0F680FFF78AF8B4
:1010BC00401B0228E9D903202CE27348436823F42F
:1010CC00F85321694FF4F85292FAA2F2B2FA82F272
:1010DC0001FA02F21343436061E7012393FAA3F38D
:1010EC00B3FA83F303F1845303F58E139B000022B0
:1010FC001A60FFF767F80546022393FAA3F3624BD5
:10110C001968022393FAA3F3B3FA83F303F01F03D2
:10111C00012202FA03F30B423FF441AFFFF752F8FE
:10112C00401B0228E8D90320F4E157494B6823F40B
:10113C006043184348604B6823F07F43E0694FF0ED
:10114C007F4292FAA2F2B2FA82F200FA02F213434E
:10115C004B60206AFFF7D6FD00283FF463AF0120F7
:10116C00D8E1A369002B3FD04FF4807393FAA3F31B
:10117C00B3FA83F303F1845303F58E139B0001221E
:10118C001A60FFF71FF805464FF4007393FAA3F3A8
:10119C003D4B19684FF4007393FAA3F3B3FA83F33E
:1011AC0003F01F03012202FA03F30B4206D1FFF7EF
:1011BC0009F8401B0228E7D90320ABE132494B6800
:1011CC0023F46043226A13434B604B6823F07F4344
:1011DC00E0694FF07F4292FAA2F2B2FA82F200FA80
:1011EC0002F213434B603BE74FF4807393FAA3F383
:1011FC00B3FA83F303F1845303F58E139B0000229F
:10120C001A60FEF7DFFF05464FF4007393FAA3F361
:10121C001D4B19684FF4007393FAA3F3B3FA83F3DD
:10122C0003F01F03012202FA03F30B423FF418AF41
:10123C00FEF7C8FF401B0228E6D903206AE1012211
:10124C0092FAA2F2B2FA82F2124B13449B000022E1
:10125C001A60FEF7B7FF0546022393FAA3F20A4A77
:10126C00516B93FAA3F3B3FA83F303F01F03012238
:10127C0002FA03F30B420FD0FEF7A4FF401B022827
:10128C00EAD9032046E100BF003802408833000849
:10129C0000000020A0C19110236813F0040F00F08F
:1012AC0092809E4B5B6A13F0805F1ED19B4B5A6AF7
:1012BC0042F080525A625B6A03F080530193019BA7
:1012CC000125974B1B6813F4807F10D0A368012B6A
:1012DC0021D0002B43D1914B5A6B22F480725A636C
:1012EC005A6B22F480625A631AE00025E9E78C4AB3
:1012FC00136843F480731360FEF764FF0646884B53
:10130C001B6813F4807FE1D1FEF75CFF801B64281F
:10131C00F5D90320FEE0814A536B43F48073536389
:10132C00A36893B3FEF74EFF06464FF4007393FA8F
:10133C00A3F27A4A516B93FAA3F3B3FA83F303F053
:10134C001F03012202FA03F30B423BD1FEF73AFFD3
:10135C00801B41F288339842E7D90320DAE0052B51
:10136C0009D06E4B5A6B22F480725A635A6B22F47A
:10137C0080625A63D4E7694B5A6B42F480625A63B9
:10138C005A6B42F480725A63CAE7FEF71BFF06469B
:10139C004FF4007393FAA3F2604A516B93FAA3F3E0
:1013AC00B3FA83F303F01F03012202FA03F30B4297
:1013BC0008D0FEF707FF801B41F288339842E7D92B
:1013CC000320A7E0B5BB636A002B00F0A280534A50
:1013DC00926802F00C020C2A00F09E80022B2FD097
:1013EC004FF0807393FAA3F3B3FA83F303F18453AE
:1013FC0003F58E139B0000221A60FEF7E3FE0446F1
:10140C004FF0007393FAA3F3444B19684FF0007339
:10141C0093FAA3F3B3FA83F303F01F03012202FA46
:10142C0003F30B426DD0FEF7CDFE001B0228E7D96B
:10143C0003206FE0394A536A23F080535362C2E7AA
:10144C004FF0807393FAA3F3B3FA83F303F184534D
:10145C0003F58E139B0000221A60FEF7B3FE0546BF
:10146C004FF0007393FAA3F32C4B19684FF00073F1
:10147C0093FAA3F3B3FA83F303F01F03012202FAE6
:10148C0003F30B4206D0FEF79DFE401B0228E7D962
:10149C0003203FE021498B6823F47D03A26AE06AB4
:1014AC000243206B024313438B604FF0807393FA1B
:1014BC00A3F3B3FA83F303F1845303F58E139B0068
:1014CC0001221A60FEF77EFE04464FF0007393FA79
:1014DC00A3F3124B19684FF0007393FAA3F3B3FA0A
:1014EC0083F303F01F03012202FA03F30B4206D12C
:1014FC00FEF768FE001B0228E7D903200AE0002053
:10150C0008E0002006E0012004E0012002E00120B8
:10151C0000E0002002B070BD0120FBE70038024063
:10152C0000700040224B986800F00C02082A3CD056
:10153C000C2A13D0042A0FD01D4B586800F46040BD
:10154C004FF4604393FAA3F3B3FA83F3D840431CEC
:10155C004FF40040984070471648704700F47011E3
:10156C004FF4701292FAA2F2B2FA82F221FA02F25B
:10157C0011498A5C00F440004FF4400393FAA3F342
:10158C00B3FA83F3D8400130094B9B6813F4803FC6
:10159C0005D00A4B03FB02F3B3FBF0F07047054B8D
:1015AC0003FB02F3B3FBF0F070470448704700BF35
:1015BC00003802400024F4007C33000800366E0131
:1015CC008D4B1B6803F001038B4214D201290CD004
:1015DC00894A136823F001030B431360136803F06B
:1015EC0001038B4207D001207047834A136843F0F4
:1015FC0004031360ECE770B5036813F0020F06D018
:10160C007E4A936823F0F0038468234393600C466E
:10161C000546036813F0010F00F0A3804368022B0A
:10162C0018D0032B48D0012B5BD04FF4007292FAE8
:10163C00A2F2724A10684FF4007292FAA2F2B2FA55
:10164C0082F202F01F02012101FA02F2024215D1CC
:10165C000120CDE04FF4003292FAA2F2674A1068F2
:10166C004FF4003292FAA2F2B2FA82F202F01F02A6
:10167C00012101FA02F2024200F0BB805F498A6844
:10168C0022F0030213438B60FEF79CFD06466B6849
:10169C00022B39D0032B46D0012B53D0574B9B68D0
:1016AC0013F00C0F5DD0FEF78DFD801B41F28833DB
:1016BC009842F3D903209BE04FF0007292FAA2F209
:1016CC004E4A10684FF0007292FAA2F2B2FA82F20D
:1016DC0002F01F02012101FA02F20242CED10120D6
:1016EC0086E0022292FAA2F2444A1068022292FA8E
:1016FC00A2F2B2FA82F202F01F02012101FA02F206
:10170C000242BBD1012073E03C4B9B6803F00C03FD
:10171C00082B26D0FEF756FD801B41F288339842E9
:10172C00F2D9032064E0354B9B6803F00C030C2BBF
:10173C0017D0FEF747FD801B41F288339842F2D94F
:10174C00032055E02D4B9B6803F00C03042B08D0B1
:10175C00FEF738FD801B41F288339842F2D9032002
:10176C0046E0254B1B6803F00103A34214D9012C5E
:10177C000CD0214A136823F0010323431360136830
:10178C0003F00103A34207D0012031E01A4A136889
:10179C0043F004031360ECE72B6813F0040F06D03E
:1017AC00164A936823F4E063E9680B4393602B6853
:1017BC0013F0080F07D0114A936823F4605329697A
:1017CC0043EAC1039360FFF7ADFE0C4B9B6803F03B
:1017DC00F003F02292FAA2F2B2FA82F2D340084A53
:1017EC00D35CD840074B18600020FEF7C1FC0020EA
:1017FC0070BD0120FCE700BF003C024000380240F5
:10180C008833000800000020014B1868704700BFA7
:10181C000000002008B5FFF7F7FF074B9B6803F4A7
:10182C00E0634FF4E06292FAA2F2B2FA82F2D34091
:10183C00024AD35CD84008BD0038024098330008F7
:10184C0008B5FFF7E1FF074B9B6803F460534FF4B7
:10185C00605292FAA2F2B2FA82F2D340024AD35CFC
:10186C00D84008BD00380240983300080368B0F136
:10187C00804F0ED01C4A90420BD002F580629042F1
:10188C0007D002F58062904203D002F57C42904270
:10189C0003D123F070034A681343B0F1804F16D084
:1018AC00114A904213D002F5806290420FD002F59B
:1018BC00806290420BD002F57C42904207D002F538
:1018CC008062904203D002F58062904203D123F4EF
:1018DC004073CA68134303608B68C3620B688362EE
:1018EC0001234361704700BF0004004010B4036A39
:1018FC00046A24F001040462846924F0F00444EACC
:10190C00021223F00A030B438261036210BC70477E
:10191C0010B4036A23F0100303628469036A24F48D
:10192C00704444EA023223F0A00343EA01138261BB
:10193C00036210BC7047836823F0700341F0070109
:10194C0019438160704710B4846824F47F4442EAE0
:10195C0003230B432343836010BC7047A8B110B51D
:10196C00044690F835305BB1022384F83530211DE4
:10197C002068FFF77BFF012384F83530002010BD71
:10198C0080F8343001F074FBEEE7012070470268F8
:10199C00D36843F00103D3600268136843F001037A
:1019AC0013600020704790F83430012B7DD010B5B7
:1019BC000446012380F83430022380F83530026865
:1019CC00936823F47F4323F0770393600B68402BD9
:1019DC0057D010D9702B3ED01FD8502B47D0602B2E
:1019EC0032D1CA6849680068FFF792FF602120680D
:1019FC00FFF7A1FF28E0102B4DD008D9202B4FD09A
:101A0C00302B21D130210068FFF795FF1CE0DBB9AA
:101A1C0000210068FFF78FFF16E0B3F5805F0ED052
:101A2C00B3F5005F10D1CB684A6889680068FFF78E
:101A3C008AFF2268936843F48043936004E0026851
:101A4C00936823F007039360012384F8353000205A
:101A5C0084F8340010BDCB684A6889680068FFF7C9
:101A6C0072FF2268936843F077039360ECE7CA68CF
:101A7C0049680068FFF73AFF50212068FFF75BFFC9
:101A8C00E2E7CA6849680068FFF730FF4021206828
:101A9C00FFF751FFD8E710210068FFF74CFFD3E7A1
:101AAC0020210068FFF747FFCEE702207047704700
:101ABC0070477047704710B5044603681A6912F0F6
:101ACC00020F11D0DA6812F0020F0DD06FF0020283
:101ADC001A610123037503689B6913F0030F5ED031
:101AEC00FFF7E6FF0023237523681A6912F0040F31
:101AFC0012D0DA6812F0040F0ED06FF004021A61E3
:101B0C000223237523689B6913F4407F4DD0204634
:101B1C00FFF7CEFF0023237523681A6912F0080F14
:101B2C0012D0DA6812F0080F0ED06FF008021A61AA
:101B3C00042323752368DB6913F0030F3CD0204684
:101B4C00FFF7B6FF0023237523681A6912F0100FF4
:101B5C0012D0DA6812F0100F0ED06FF010021A616A
:101B6C00082323752368DB6913F4407F2BD02046B0
:101B7C00FFF79EFF0023237523681A6912F0010FEB
:101B8C0003D0DA6812F0010F24D123681A6912F01D
:101B9C00400F03D0DA6812F0400F22D110BDFFF7CE
:101BAC0086FF2046FFF785FF9CE72046FFF77FFF67
:101BBC002046FFF77EFFADE72046FFF778FF204673
:101BCC00FFF777FFBEE72046FFF771FF2046FFF7D0
:101BDC0070FFCFE76FF001021A61204600F0FCFEA7
:101BEC00D3E76FF040021A612046FFF763FFD5E799
:101BFC0090F83430012B22D030B4012280F83420FC
:101C0C00022380F835300468636823F07003636046
:101C1C00046863680D682B4363600468A36823F051
:101C2C008003A3600468A36849680B43A36080F831
:101C3C003520002380F83430184630BC7047022021
:101C4C00704790F83930DBB2122B01D0322B2AD1ED
:101C5C008368B3F5805F16D0036A5A1C02621A7847
:101C6C0003685A60C38C013B9BB2C384EBB9026816
:101C7C00D36823F08003D3600268D36843F0400339
:101C8C00D36000207047036A1B880268C3F3080303
:101C9C00536003691BB9036A02330362E2E7036A08
:101CAC0001330362DEE7022070470020704700001A
:101CBC002DE9F84304460268136923F44053C168C4
:101CCC000B43136183680269134342691343C2696E
:101CDC001A430168CB6823F4164323F00C03134317
:101CEC00CB600268536923F4407381690B435361E1
:101CFC00C369B3F5004F5CD00268B34B9A4200F055
:101D0C000C81FFF787FD00EB800000EB800065681D
:101D1C00AD00B0FBF5F5AD4FA7FB05356D092E01F8
:101D2C00FFF778FD00EB800000EB80006568AD00EC
:101D3C00B0FBF5F9FFF76EFD00EB800000EB8000C7
:101D4C006568AD00B0FBF5F5A7FB05356D094FF0E7
:101D5C00640808FB15952D013235A7FB05356D0977
:101D6C0005F0F0053544FFF755FD00EB800000EB66
:101D7C0080006668B600B0FBF6F6FFF74BFD00EB93
:101D8C00800000EB800063689B00B0FBF3F0A7FBC6
:101D9C000030400908FB10684FEA081808F13208B7
:101DAC00A7FB0837C7F3431723682F449F60BDE890
:101DBC00F8830268844B9A4257D0FFF72BFD00EB57
:101DCC00800000EB800065686D00B0FBF5F57F4F7F
:101DDC00A7FB05356D092E01FFF71CFD00EB8000FC
:101DEC0000EB800065686D00B0FBF5F9FFF712FDA4
:101DFC0000EB800000EB800065686D00B0FBF5F532
:101E0C00A7FB05356D094FF0640808FB1595ED002F
:101E1C003235A7FB05356D096D0005F4F8753544B1
:101E2C00FFF7F8FC00EB800000EB800066687600A2
:101E3C00B0FBF6F6FFF7EEFC00EB800000EB800049
:101E4C0063685B00B0FBF3F3A7FB03235B0908FBA0
:101E5C0013684FEAC80808F13208A7FB0837C7F324
:101E6C00421723682F449F60A1E7FFF7E9FC00EBC2
:101E7C00800000EB800065686D00B0FBF5F5534FFA
:101E8C00A7FB05356D092E01FFF7DAFC00EB80008E
:101E9C0000EB800065686D00B0FBF5F9FFF7D0FC36
:101EAC0000EB800000EB800065686D00B0FBF5F581
:101EBC00A7FB05356D094FF0640808FB1595ED007F
:101ECC003235A7FB05356D096D0005F4F875354401
:101EDC00FFF7B6FC00EB800000EB80006668760034
:101EEC00B0FBF6F6FFF7ACFC00EB800000EB8000DB
:101EFC0063685B00B0FBF3F3A7FB03235B0908FBF0
:101F0C0013684FEAC80808F13208A7FB0837C7F373
:101F1C00421723682F449F6049E7FFF791FC00EBC1
:101F2C00800000EB80006568AD00B0FBF5F5274F35
:101F3C00A7FB05356D092E01FFF782FC00EB800035
:101F4C0000EB80006568AD00B0FBF5F9FFF778FC9D
:101F5C0000EB800000EB80006568AD00B0FBF5F590
:101F6C00A7FB05356D094FF0640808FB15952D018D
:101F7C003235A7FB05356D0905F0F0053544FFF743
:101F8C005FFC00EB800000EB80006668B600B0FBE5
:101F9C00F6F6FFF755FC00EB800000EB8000636861
:101FAC009B00B0FBF3F3A7FB03235B0908FB13684F
:101FBC004FEA081808F13208A7FB0837C7F3431794
:101FCC0023682F449F60F2E6003801401F85EB51D7
:101FDC002DE9F04105460E4690461C46FEF7F2F8F8
:101FEC000746B8F1000F29D02B681B6836EA0303AB
:101FFC0051D1B4F1FF3FF7D024B1FEF7E3F8C01B89
:10200C00A042F1D92A68D36823F08003D3602A68F0
:10201C00D36823F02003D3602A68D36823F4807339
:10202C00D3602A68536923F001035361012385F8B7
:10203C003930002385F8383003202AE02B681B68E0
:10204C0036EA030324D0B4F1FF3FF7D024B1FEF7F6
:10205C00B9F8C01BA042F1D92A68D36823F08003D9
:10206C00D3602A68D36823F02003D3602A68D3682E
:10207C0023F48073D3602A68536923F001035361FE
:10208C00012385F83930002385F83830032000E02F
:10209C000020BDE8F0810020FBE748B310B50446F2
:1020AC0090F83930FBB1022384F839302268D368B8
:1020BC0023F40053D3602046FFF7FAFD226813691E
:1020CC0023F4904313612268536923F02A0353616C
:1020DC002268D36843F40053D3600020E0630123EB
:1020EC0084F8393010BD80F8383001F029F8DAE77F
:1020FC000120704770B504460D461E4690F83930E5
:10210C00DBB2012B01D0222B59D1002D5AD0002A41
:10211C005AD094F83830012B58D0012384F8383039
:10212C000023E36394F83930DBB2222B05D0122361
:10213C0084F83930A284E28413E0322384F83930F5
:10214C00F8E73346002280212046FFF741FF0028A4
:10215C003ED12B882268C3F3080353602369A3B9CB
:10216C000235E38C9BB1013BE384A368B3F5805F3C
:10217C00E7D03346002280212046FFF729FF48BBD9
:10218C002A7823685A600135EBE70135E9E73346D5
:10219C00002240212046FFF71BFF0346E0B994F8CC
:1021AC003920D2B2322A06D0012284F839200022FA
:1021BC0084F8382004E0222284F83920F7E702233F
:1021CC00184670BD0123FBE70123F9E70223F7E76B
:1021DC000323F5E70323F3E70323F1E710B590F8A6
:1021EC003940E4B2012C01D0122C34D1002934D066
:1021FC00002A34D090F83830012B32D0012380F8EB
:10220C003830816282850023C36390F83930DBB2A9
:10221C00122B1CD0222380F8393013460A46044670
:10222C00416B11488862616B1048C862616B104841
:10223C00086321680431606BFEF7ECFB226853697C
:10224C0043F040035361002084F8380004E032234B
:10225C0080F83930E1E7022010BD0120FCE70120B5
:10226C00FAE70220F8E700BFAF220008A12300081C
:10227C00AD230008704708B50268D36823F040030B
:10228C00D36090F83930DBB2322B06D0012380F8C2
:10229C003930FFF7EFFF002008BD222380F83930DA
:1022AC00F7E708B5436A0268126812F0200F0ED1E6
:1022BC000022DA8519684A6922F040024A6193F8D3
:1022CC003920D2B2322A06D0012283F8392018469E
:1022DC0000F020FC08BD122283F83920F7E708B57E
:1022EC0090F83930DBB2222B01D0322B4ED18368DF
:1022FC00B3F5805F29D00369002B3AD103685A6883
:10230C00836A591C81621A70C38D013B9BB2C385D1
:10231C00002B3DD10268D36823F02003D36090F8E2
:10232C003930DBB2322B2DD00268D36823F48073A2
:10233C00D3600268536923F001035361012380F8D1
:10234C00393000F0E7FB002008BD826A036943B90D
:10235C0003685B68C3F308031380836A02338362E8
:10236C00D2E703685B68DBB21380836A0133836254
:10237C00CAE703685B68826A511C816203F07F03C1
:10238C001370C1E7122380F83930DAE70220DBE75B
:10239C000020D9E708B5406A00F0BDFB08BD7047C6
:1023AC0008B5406A0023C385C384012380F8393003
:1023BC00C36B43F01003C363FFF7F1FF08BD10B507
:1023CC0082B0044603681968DA6811F0010F06D070
:1023DC0002F480721AB1C26B42F00102C263196836
:1023EC005A6902F0010211F0020F04D01AB1E16B2C
:1023FC0041F00401E163196811F0040F04D01AB123
:10240C00E16B41F00201E163196811F0080F04D08F
:10241C001AB1E26B42F00802E2631A68DB6803F05F
:10242C00200312F0200F00D0ABB923681A68DB68C8
:10243C0003F0800312F0800F00D083B923681A6870
:10244C00DB6803F0400312F0400F00D05BB9E36B84
:10245C006BB902B010BD2046FFF741FFE5E72046FF
:10246C00FFF7EFFBEAE72046FFF705FFEFE72368EE
:10247C001A6801925B680193019B012384F839303F
:10248C002046FFF78CFFE4E784B00F4BDA6942F08B
:10249C000402DA61DA6902F004020192019ADA6943
:1024AC0042F00102DA61DA6902F001020292029A48
:1024BC00DA6942F00202DA61DB6903F0020303938A
:1024CC00039B04B0704700BF0038024000B583B0D6
:1024DC000E4BDA6942F08072DA61DB6903F08073CB
:1024EC000193019B002211460B20FEF7C1F90B2032
:1024FC00FEF7F2F9002211460D20FEF7B9F90D2076
:10250C00FEF7EAF903B05DF804FB00BF00380240A7
:10251C002DE9F04182B01B4EF36943F00203F361E5
:10252C00F36903F002030093009B174C8023236094
:10253C00012767600025A560E560DFF8548021461F
:10254C004046FEF7FDFAF36943F00203F361F369C9
:10255C0003F002030193019B402323606760A56095
:10256C00E56021464046FEF7EBFA4FF4807323609A
:10257C006760A560E56021460448FEF7E1FA02B009
:10258C00BDE8F0810038024020000020000002402D
:10259C0000040240184AD36943F05203D36117492F
:1025AC000B6843F4A0530B60A2F52052136843F45C
:1025BC0082631360124B186840F4AA6040F0050067
:1025CC001860486820F060004860506820F02400D3
:1025DC005060586820F03F005860C86820F4705074
:1025EC00C860D16821F44361D160DA6822F47F625B
:1025FC0022F00F02DA6070470038024000040240FB
:10260C000018024010B5064C002220212046FEF78F
:10261C006FFB012240212046FEF76AFB10BD00BF74
:10262C000004024010B5064C012220212046FEF782
:10263C005FFB002240212046FEF75AFB10BD00BF75
:10264C000004024010B5064C002220212046FEF763
:10265C004FFB002240212046FEF74AFB10BD00BF75
:10266C000004024010B5064C002204212046FEF75F
:10267C003FFB012220212046FEF73AFB10BD00BF94
:10268C000010024010B5064C012204212046FEF732
:10269C002FFB002220212046FEF72AFB10BD00BF95
:1026AC000010024010B5064C002204212046FEF713
:1026BC001FFB002220212046FEF71AFB10BD00BF95
:1026CC000010024010B5064C002201212046FEF7F6
:1026DC000FFB012202212046FEF70AFB10BD00BFB2
:1026EC000018024010B5064C012211462046FEF798
:1026FC00FFFA002202212046FEF7FAFA10BD00BFB5
:10270C000018024010B5064C002201212046FEF7AD
:10271C00EFFA002202212046FEF7EAFA10BD00BFB4
:10272C000018024010B5064C002204212046FEF78A
:10273C00DFFA012208212046FEF7DAFA10BD00BFAD
:10274C000018024010B5064C012204212046FEF769
:10275C00CFFA002208212046FEF7CAFA10BD00BFAE
:10276C000018024010B5064C002204212046FEF74A
:10277C00BFFA002208212046FEF7BAFA10BD00BFAE
:10278C000018024010B5064C002210212046FEF71E
:10279C00AFFA012220212046FEF7AAFA10BD00BF95
:1027AC000018024010B5064C012210212046FEF7FD
:1027BC009FFA002220212046FEF79AFA10BD00BF96
:1027CC000018024010B5064C002210212046FEF7DE
:1027DC008FFA002220212046FEF78AFA10BD00BF96
:1027EC000018024010B50446FFF71CFFFFF74AFF24
:1027FC00FFF778FFFFF7A6FFFFF7D4FF0A4B002285
:10280C005A6102E00133084A5361074B5B69A342EA
:10281C00F8DBFFF717FFFFF745FFFFF773FFFFF735
:10282C00A1FFFFF7CFFF10BD2000002008B5654BBE
:10283C001B68B3F5FA6F1AD9C3F583530833624A90
:10284C00A2FB0323DB09614A1360614A12689342BD
:10285C0000F28680934280F08A80FFF7E3FE5C4AA8
:10286C001368013B1360574B1A685A4B1A60554B4F
:10287C005B68B3F5FA6F18D9C3F583530833524A22
:10288C00A2FB0323DB09514A5360514A526893421D
:10289C0070D8934275D2FFF7F5FE4D4A5368013B51
:1028AC005360484B5A684B4B5A60464B9B68B3F588
:1028BC00FA6F18D9C3F583530833434AA2FB032399
:1028CC00DB09424A9360424A926893425CD8934235
:1028DC0061D2FFF707FF3E4A9368013B9360394B87
:1028EC009A683C4B9A60374BDB68B3F5FA6F18D992
:1028FC00C3F583530833344AA2FB0323DB09334A61
:10290C00D360334AD268934248D893424DD2FFF7F2
:10291C0019FF2F4AD368013BD3602A4BDA682D4B41
:10292C00DA60284B1B69B3F5FA6F18D9C3F58353DA
:10293C000833254AA2FB0323DB09244A1361244AEA
:10294C001269934234D8934239D2FFF72BFF204AB5
:10295C001369013B13611B4B1A691E4B1A6108BDAD
:10296C00FFF750FE1A4A1368013313607BE7FFF739
:10297C0069FE78E7FFF776FE154A5368013353601A
:10298C008FE7FFF78FFE8CE7FFF79CFE104A9368EA
:10299C0001339360A3E7FFF7B5FEA0E7FFF7C2FE94
:1029AC000B4AD3680133D360B7E7FFF7DBFEB4E71C
:1029BC00FFF7E8FE064A136901331361CBE7FFF713
:1029CC0001FFC8E7900100201F85EB516801002032
:1029DC00B80100205401002008B50368B3F1804F02
:1029EC0008D0424A934206D0414A934206D0414A0B
:1029FC00934228D008BDFFF719FFFBE73E4B5B69FC
:102A0C00B3F57A6F11D83C4B1A683C490A605A6886
:102A1C004A609A688A60DA68CA601B690B61642331
:102A2C0014223748FFF766FBE4E7364940F6E443E7
:102A3C000B604B608B60CB600B61642314223048BD
:102A4C00FFF758FBD6E7304B1B68B3F57A6F04D908
:102A5C002E4B1B68B3F57A6F29D82B4B5B68B3F5FB
:102A6C007A6F04D9294B5B68B3F57A6F22D8264B61
:102A7C009B68B3F57A6F04D9244B9B68B3F57A6FD6
:102A8C001BD8214BDB68B3F57A6F04D91F4BDB687D
:102A9C00B3F57A6F14D81C4B1B69B3F57A6F04D954
:102AAC001A4B1B69B3F57A6F0DD800230FE0FFF7B3
:102ABC00B9FDD2E7FFF7E6FDD9E7FFF713FEE0E734
:102ACC00FFF740FEE7E7FFF76DFEEEE70133104A34
:102ADC009342FBDDFFF7B6FDFFF7E4FDFFF712FEB7
:102AEC00FFF740FEFFF76EFE84E700BF00040040D6
:102AFC0000140040000C0140E00100207C0100208B
:102B0C0090000020080100209001002054010020BA
:102B1C00DF930400704770477047FEE700B587B03D
:102B2C0018484FF080430360D12343600023836037
:102B3C00C822C2600361FEF711FF98B906A94FF4D1
:102B4C00805341F8103D0F48FEF72DFF78B9002354
:102B5C000093019369460B48FFF74AF860B907B038
:102B6C005DF804FB4FF40C710748FFF7D6FF40F2F9
:102B7C0036210548FFF7D1FF40F23D210248FFF70F
:102B8C00CCFF00BFF8010020A033000800B587B0CF
:102B9C001848194B036040F63103436000238360EF
:102BAC006422C2600361FEF7D9FE98B906A94FF4FE
:102BBC00805341F8103D0F48FEF7F5FE78B900231D
:102BCC000093019369460B48FFF712F860B907B000
:102BDC005DF804FB4FF414710848FFF79EFF40F2B8
:102BEC0056210648FFF799FF40F25D210348FFF795
:102BFC0094FF00BF1C01002000040040A03300081B
:102C0C0000B585B01248134B036040F631034360A6
:102C1C000023836040F6B832C2600361FEF79EFE6B
:102C2C0058B904A94FF4805341F8103D0848FEF7F9
:102C3C00BAFE38B905B05DF804FB40F287210648AE
:102C4C00FFF76BFF40F28D210348FFF766FF00BFD3
:102C5C00D0000020000C0140A033000800B585B066
:102C6C003D483E4B0360002343608360C3604FF4D8
:102C7C008072026143618361C3610362012242621B
:102C8C0006218162C362102141638363C263FDF735
:102C9C00ADFA00283DD10B230193012302930723A6
:102CAC00039301A92C48FDF755FC002836D10C23C1
:102CBC0001930223029301A92748FDF74BFC00283E
:102CCC0031D10D2301930323029301A92248FDF76F
:102CDC0041FC68BB0E230193042302930DEB03010B
:102CEC001D48FDF737FC40BB0F23019305230293CE
:102CFC0001A91948FDF72EFC20BB012301930623E3
:102D0C00029301A91448FDF725FC00BB05B05DF842
:102D1C0004FB4FF4F3711248FFF7FFFE4FF4F87108
:102D2C000F48FFF7FAFE40F2F9110D48FFF7F5FED8
:102D3C0040F202210A48FFF7F0FE40F20B2108484E
:102D4C00FFF7EBFE4FF405710548FFF7E6FE40F286
:102D5C001D210348FFF7E1FE74020020002401400E
:102D6C00A033000800B583B01048114B036040F647
:102D7C0031034360002383606423C360FEF7EEFDE0
:102D8C0050B900230093019369460848FEF730FFC1
:102D9C0038B903B05DF804FB40F26E210548FFF72B
:102DAC00BCFE40F275210348FFF7B7FEC8020020B5
:102DBC0000140040A033000808B50B480B4B03600F
:102DCC004FF4E133436000238360C36003610C2242
:102DDC0042618361C361FFF760F900B908BD40F23D
:102DEC00A6210348FFF799FE900000200048004000
:102DFC00A033000800B593B0204A136823F4C053E5
:102E0C0043F40063136012230593012308931022EB
:102E1C0009920B9300230C934FF420420D920E93C6
:102E2C0005A8FDF7B9FFF0B90F230093002101911C
:102E3C000291039104916846FEF7C2FBC0B9FEF7FC
:102E4C00E3FC0F4BA3FB00308009FDF751FD042080
:102E5C00FDF764FD002211464FF0FF30FDF708FD31
:102E6C0013B05DF804FB4FF4D8710648FFF755FE1C
:102E7C004FF4DF710348FFF750FE00BF00700040B5
:102E8C00D34D6210A033000808B5FDF787F9FFF7A2
:102E9C00B1FFFFF7F9FAFFF719FBFFF73FFEFFF75A
:102EAC0075FEFFF7ADFEFFF7D9FEFFF75BFFFFF7EF
:102EBC0083FFFFF72DFBFFF76DFB1048FFF792FC2C
:102ECC000F48FEF764FD0F48FEF761FD0E48FEF754
:102EDC005EFD0E48FEF75BFD28220D490D48FFF7FD
:102EEC007DF906220C490D48FDF74CFC80210C485D
:102EFC00FDF704FF6420FDF76BF9F7E7503403008E
:102F0C00F80100201C010020C8020020D000002085
:102F1C009001002090000020E001002074020020AD
:102F2C000004024000B585B0254B5A6A42F00042BD
:102F3C005A625A6A02F000420192019A1A6A42F0ED
:102F4C0001021A621A6A02F001020292029A5A6A89
:102F5C0042F080525A625B6A03F080530393039BE6
:102F6C000320FDF773FC002211466FF00B00FDF7F8
:102F7C007FFC002211466FF00A00FDF779FC00225D
:102F8C0011466FF00900FDF773FC002211466FF03B
:102F9C000400FDF76DFC002211466FF00300FDF7F5
:102FAC0067FC002211466FF00100FDF761FC002266
:102FBC0011464FF0FF30FDF75BFC05B05DF804FBEC
:102FCC00003802400268244B9A4200D0704770B51A
:102FDC0086B0044603F58A331A6A42F400721A6208
:102FEC001B6A03F400730093009B3E23019303269A
:102FFC0002960025039501A91848FDF7A1FD0223AF
:10300C0001930296039501A91548FDF799FD154802
:10301C00154B0360456085608023C3604FF40073DB
:10302C0003614FF40063436120238361C561FDF7A5
:10303C00A1FC60B90B4B63645C6200221146122048
:10304C00FDF716FC1220FDF747FC06B070BD802181
:10305C000648FFF762FDEDE700240140000802403E
:10306C00000002403002002008600240B03300082B
:10307C0000B585B00368B3F1804F0BD02C4A934256
:10308C001CD02C4A93422CD02B4A93423CD005B0F6
:10309C005DF804FB03F50E335A6A42F001025A62E2
:1030AC005B6A03F001030093009B002211461C2075
:1030BC00FDF7DEFB1C20FDF70FFCE8E71F4B5A6AFF
:1030CC0042F002025A625B6A03F002030193019B15
:1030DC00002211461D20FDF7CBFB1D20FDF7FCFB4C
:1030EC00D5E7164B5A6A42F020025A625B6A03F02B
:1030FC0020030293029B002211462C20FDF7B8FB03
:10310C002C20FDF7E9FBC2E70C4B1A6A42F00802CF
:10311C001A621B6A03F008030393039B00221146F7
:10312C001A20FDF7A5FB1A20FDF7D6FBAFE700BF71
:10313C000004004000140040000C01400038024024
:10314C000268224B9A4200D0704710B586B00446F4
:10315C0003F5F8335A6A42F480225A625B6A03F42C
:10316C0080230093009B4FF440630193022302934E
:10317C0001230393032304930723059301A9144804
:10318C00FDF7DEFC1348144B03600023436083609F
:10319C008022C2600361436120228261C361FDF71A
:1031AC00E9FB60B90B4B63635C620022114627207C
:1031BC00FDF75EFB2720FDF78FFB06B010BD4FF42B
:1031CC00A9710648FFF7A9FCECE700BF00480040D6
:1031DC00000802404C00002030600240B033000870
:1031EC007047FEE7FEE7FEE7FEE770477047704763
:1031FC0008B5FCF7DFFFFDF7A2FB08BD08B50248D8
:10320C00FDF743FC08BD00BF3002002008B50248A2
:10321C00FDF73BFC08BD00BF4C00002008B5024880
:10322C00FDF7F6F808BD00BF7402002008B502488F
:10323C00FEF741FC08BD00BFD000002008B50248D5
:10324C00FEF739FC08BD00BFF801002008B50248A4
:10325C00FEF731FC08BD00BF1C01002008B5024878
:10326C00FFF7ADF808BD00BF9000002008B502487C
:10327C00FEF721FC08BD00BFC80200200E4B1A68E7
:10328C0042F480721A6099680C4A0A409A601A6873
:10329C0022F0885222F001121A601A6822F480225D
:1032AC001A609A6822F47D029A600022DA60044B5C
:1032BC004FF000629A607047003802400CC0FF88E3
:1032CC0000ED00E0002103E00B4B5B584350043150
:1032DC000A480B4B42189A42F6D30A4A02E00023E2
:1032EC0042F8043B084B9A42F9D3FFF7C7FF00F0B2
:1032FC000FF8FFF7C9FD7047D43300080000002019
:10330C00040000200400002000030020FEE7000061
:10331C0070B500250C4E0D4CA41BA410A54209D170
:10332C0000F01AF800250A4E0A4CA41BA410A54262
:10333C0005D170BD56F8253098470135EEE756F8A3
:10334C00253098470135F2E7CC330008CC33000820
:10335C00CC330008D0330008F8B500BFF8BC08BC6B
:10336C009E467047F8B500BFF8BC08BC9E46704737
:10337C00030406080C1018203000000000000000A8
:10338C000000000001020304060708090000000009
:10339C00010203042E2E2F5372632F6D61696E2E62
:1033AC00630000002E2E2F5372632F73746D333213
:1033BC006C3178785F68616C5F6D73702E630000A0
:0433CC006101000893
:0433D0003D010008B3
:0433D40068FF1F006F
:04000005080032D1EC
:00000001FF
